{
  "_format": "hh-sol-artifact-1",
  "contractName": "Staking",
  "sourceName": "contracts/Staking.sol",
  "abi": [
    {
      "inputs": [
        {
          "internalType": "address",
          "name": "_ALGB",
          "type": "address"
        },
        {
          "internalType": "address",
          "name": "_xALGB",
          "type": "address"
        }
      ],
      "stateMutability": "nonpayable",
      "type": "constructor"
    },
    {
      "anonymous": false,
      "inputs": [
        {
          "indexed": false,
          "internalType": "uint256",
          "name": "amount",
          "type": "uint256"
        }
      ],
      "name": "AddRewards",
      "type": "event"
    },
    {
      "anonymous": false,
      "inputs": [
        {
          "indexed": true,
          "internalType": "address",
          "name": "owner",
          "type": "address"
        },
        {
          "indexed": true,
          "internalType": "address",
          "name": "approved",
          "type": "address"
        },
        {
          "indexed": true,
          "internalType": "uint256",
          "name": "tokenId",
          "type": "uint256"
        }
      ],
      "name": "Approval",
      "type": "event"
    },
    {
      "anonymous": false,
      "inputs": [
        {
          "indexed": true,
          "internalType": "address",
          "name": "owner",
          "type": "address"
        },
        {
          "indexed": true,
          "internalType": "address",
          "name": "operator",
          "type": "address"
        },
        {
          "indexed": false,
          "internalType": "bool",
          "name": "approved",
          "type": "bool"
        }
      ],
      "name": "ApprovalForAll",
      "type": "event"
    },
    {
      "anonymous": false,
      "inputs": [
        {
          "indexed": false,
          "internalType": "uint256",
          "name": "amount",
          "type": "uint256"
        },
        {
          "indexed": false,
          "internalType": "uint256",
          "name": "tokenId",
          "type": "uint256"
        }
      ],
      "name": "Claim",
      "type": "event"
    },
    {
      "anonymous": false,
      "inputs": [
        {
          "indexed": false,
          "internalType": "uint256",
          "name": "amount",
          "type": "uint256"
        },
        {
          "indexed": false,
          "internalType": "uint32",
          "name": "lockTime",
          "type": "uint32"
        },
        {
          "indexed": false,
          "internalType": "uint256",
          "name": "tokenId",
          "type": "uint256"
        }
      ],
      "name": "Enter",
      "type": "event"
    },
    {
      "anonymous": false,
      "inputs": [
        {
          "indexed": false,
          "internalType": "uint256",
          "name": "amount",
          "type": "uint256"
        },
        {
          "indexed": false,
          "internalType": "uint32",
          "name": "lockTime",
          "type": "uint32"
        },
        {
          "indexed": false,
          "internalType": "uint256",
          "name": "tokenId",
          "type": "uint256"
        }
      ],
      "name": "Migrate",
      "type": "event"
    },
    {
      "anonymous": false,
      "inputs": [
        {
          "indexed": true,
          "internalType": "address",
          "name": "from",
          "type": "address"
        },
        {
          "indexed": true,
          "internalType": "address",
          "name": "to",
          "type": "address"
        },
        {
          "indexed": true,
          "internalType": "uint256",
          "name": "tokenId",
          "type": "uint256"
        }
      ],
      "name": "Transfer",
      "type": "event"
    },
    {
      "anonymous": false,
      "inputs": [
        {
          "indexed": false,
          "internalType": "uint256",
          "name": "amount",
          "type": "uint256"
        },
        {
          "indexed": false,
          "internalType": "uint256",
          "name": "tokenId",
          "type": "uint256"
        }
      ],
      "name": "Unstake",
      "type": "event"
    },
    {
      "inputs": [],
      "name": "ALGB",
      "outputs": [
        {
          "internalType": "contract IERC20Minimal",
          "name": "",
          "type": "address"
        }
      ],
      "stateMutability": "view",
      "type": "function"
    },
    {
      "inputs": [
        {
          "internalType": "uint256",
          "name": "amount",
          "type": "uint256"
        }
      ],
      "name": "addRewards",
      "outputs": [],
      "stateMutability": "nonpayable",
      "type": "function"
    },
    {
      "inputs": [
        {
          "internalType": "address",
          "name": "to",
          "type": "address"
        },
        {
          "internalType": "uint256",
          "name": "tokenId",
          "type": "uint256"
        }
      ],
      "name": "approve",
      "outputs": [],
      "stateMutability": "nonpayable",
      "type": "function"
    },
    {
      "inputs": [
        {
          "internalType": "address",
          "name": "owner",
          "type": "address"
        }
      ],
      "name": "balanceOf",
      "outputs": [
        {
          "internalType": "uint256",
          "name": "",
          "type": "uint256"
        }
      ],
      "stateMutability": "view",
      "type": "function"
    },
    {
      "inputs": [
        {
          "internalType": "uint256",
          "name": "tokenId",
          "type": "uint256"
        }
      ],
      "name": "calculateRewards",
      "outputs": [
        {
          "internalType": "uint256",
          "name": "rewards",
          "type": "uint256"
        }
      ],
      "stateMutability": "view",
      "type": "function"
    },
    {
      "inputs": [
        {
          "internalType": "uint256",
          "name": "tokenId",
          "type": "uint256"
        }
      ],
      "name": "claimRewards",
      "outputs": [
        {
          "internalType": "uint256",
          "name": "rewards",
          "type": "uint256"
        }
      ],
      "stateMutability": "nonpayable",
      "type": "function"
    },
    {
      "inputs": [
        {
          "internalType": "uint256",
          "name": "_amount",
          "type": "uint256"
        },
        {
          "internalType": "uint32",
          "name": "_lockTime",
          "type": "uint32"
        }
      ],
      "name": "enterStaking",
      "outputs": [],
      "stateMutability": "nonpayable",
      "type": "function"
    },
    {
      "inputs": [
        {
          "internalType": "uint256",
          "name": "tokenId",
          "type": "uint256"
        }
      ],
      "name": "getApproved",
      "outputs": [
        {
          "internalType": "address",
          "name": "",
          "type": "address"
        }
      ],
      "stateMutability": "view",
      "type": "function"
    },
    {
      "inputs": [
        {
          "internalType": "address",
          "name": "owner",
          "type": "address"
        },
        {
          "internalType": "address",
          "name": "operator",
          "type": "address"
        }
      ],
      "name": "isApprovedForAll",
      "outputs": [
        {
          "internalType": "bool",
          "name": "",
          "type": "bool"
        }
      ],
      "stateMutability": "view",
      "type": "function"
    },
    {
      "inputs": [
        {
          "internalType": "uint256",
          "name": "xALGBAmount",
          "type": "uint256"
        },
        {
          "internalType": "uint32",
          "name": "_lockTime",
          "type": "uint32"
        }
      ],
      "name": "migrate",
      "outputs": [],
      "stateMutability": "nonpayable",
      "type": "function"
    },
    {
      "inputs": [
        {
          "internalType": "bytes[]",
          "name": "data",
          "type": "bytes[]"
        }
      ],
      "name": "multicall",
      "outputs": [
        {
          "internalType": "bytes[]",
          "name": "results",
          "type": "bytes[]"
        }
      ],
      "stateMutability": "payable",
      "type": "function"
    },
    {
      "inputs": [],
      "name": "name",
      "outputs": [
        {
          "internalType": "string",
          "name": "",
          "type": "string"
        }
      ],
      "stateMutability": "view",
      "type": "function"
    },
    {
      "inputs": [],
      "name": "owner",
      "outputs": [
        {
          "internalType": "address",
          "name": "",
          "type": "address"
        }
      ],
      "stateMutability": "view",
      "type": "function"
    },
    {
      "inputs": [
        {
          "internalType": "uint256",
          "name": "tokenId",
          "type": "uint256"
        }
      ],
      "name": "ownerOf",
      "outputs": [
        {
          "internalType": "address",
          "name": "",
          "type": "address"
        }
      ],
      "stateMutability": "view",
      "type": "function"
    },
    {
      "inputs": [],
      "name": "prevTimestamp",
      "outputs": [
        {
          "internalType": "uint32",
          "name": "",
          "type": "uint32"
        }
      ],
      "stateMutability": "view",
      "type": "function"
    },
    {
      "inputs": [],
      "name": "rewardRate",
      "outputs": [
        {
          "internalType": "uint256",
          "name": "",
          "type": "uint256"
        }
      ],
      "stateMutability": "view",
      "type": "function"
    },
    {
      "inputs": [],
      "name": "rewardReserve",
      "outputs": [
        {
          "internalType": "uint256",
          "name": "",
          "type": "uint256"
        }
      ],
      "stateMutability": "view",
      "type": "function"
    },
    {
      "inputs": [
        {
          "internalType": "address",
          "name": "from",
          "type": "address"
        },
        {
          "internalType": "address",
          "name": "to",
          "type": "address"
        },
        {
          "internalType": "uint256",
          "name": "tokenId",
          "type": "uint256"
        }
      ],
      "name": "safeTransferFrom",
      "outputs": [],
      "stateMutability": "nonpayable",
      "type": "function"
    },
    {
      "inputs": [
        {
          "internalType": "address",
          "name": "from",
          "type": "address"
        },
        {
          "internalType": "address",
          "name": "to",
          "type": "address"
        },
        {
          "internalType": "uint256",
          "name": "tokenId",
          "type": "uint256"
        },
        {
          "internalType": "bytes",
          "name": "data",
          "type": "bytes"
        }
      ],
      "name": "safeTransferFrom",
      "outputs": [],
      "stateMutability": "nonpayable",
      "type": "function"
    },
    {
      "inputs": [
        {
          "internalType": "address",
          "name": "operator",
          "type": "address"
        },
        {
          "internalType": "bool",
          "name": "approved",
          "type": "bool"
        }
      ],
      "name": "setApprovalForAll",
      "outputs": [],
      "stateMutability": "nonpayable",
      "type": "function"
    },
    {
      "inputs": [
        {
          "internalType": "address",
          "name": "_owner",
          "type": "address"
        }
      ],
      "name": "setOwner",
      "outputs": [],
      "stateMutability": "nonpayable",
      "type": "function"
    },
    {
      "inputs": [
        {
          "internalType": "uint128",
          "name": "rate",
          "type": "uint128"
        }
      ],
      "name": "setRates",
      "outputs": [],
      "stateMutability": "nonpayable",
      "type": "function"
    },
    {
      "inputs": [
        {
          "internalType": "uint256",
          "name": "",
          "type": "uint256"
        }
      ],
      "name": "stakes",
      "outputs": [
        {
          "internalType": "uint32",
          "name": "lockTime",
          "type": "uint32"
        },
        {
          "internalType": "uint32",
          "name": "lockStartTime",
          "type": "uint32"
        },
        {
          "internalType": "uint256",
          "name": "amount",
          "type": "uint256"
        },
        {
          "internalType": "uint256",
          "name": "lastRewardGrowth",
          "type": "uint256"
        }
      ],
      "stateMutability": "view",
      "type": "function"
    },
    {
      "inputs": [],
      "name": "stakingV1",
      "outputs": [
        {
          "internalType": "contract IStakingV1",
          "name": "",
          "type": "address"
        }
      ],
      "stateMutability": "view",
      "type": "function"
    },
    {
      "inputs": [
        {
          "internalType": "bytes4",
          "name": "interfaceId",
          "type": "bytes4"
        }
      ],
      "name": "supportsInterface",
      "outputs": [
        {
          "internalType": "bool",
          "name": "",
          "type": "bool"
        }
      ],
      "stateMutability": "view",
      "type": "function"
    },
    {
      "inputs": [],
      "name": "symbol",
      "outputs": [
        {
          "internalType": "string",
          "name": "",
          "type": "string"
        }
      ],
      "stateMutability": "view",
      "type": "function"
    },
    {
      "inputs": [
        {
          "internalType": "uint256",
          "name": "index",
          "type": "uint256"
        }
      ],
      "name": "tokenByIndex",
      "outputs": [
        {
          "internalType": "uint256",
          "name": "",
          "type": "uint256"
        }
      ],
      "stateMutability": "view",
      "type": "function"
    },
    {
      "inputs": [
        {
          "internalType": "address",
          "name": "owner",
          "type": "address"
        },
        {
          "internalType": "uint256",
          "name": "index",
          "type": "uint256"
        }
      ],
      "name": "tokenOfOwnerByIndex",
      "outputs": [
        {
          "internalType": "uint256",
          "name": "",
          "type": "uint256"
        }
      ],
      "stateMutability": "view",
      "type": "function"
    },
    {
      "inputs": [
        {
          "internalType": "uint256",
          "name": "tokenId",
          "type": "uint256"
        }
      ],
      "name": "tokenURI",
      "outputs": [
        {
          "internalType": "string",
          "name": "",
          "type": "string"
        }
      ],
      "stateMutability": "view",
      "type": "function"
    },
    {
      "inputs": [],
      "name": "totalSupply",
      "outputs": [
        {
          "internalType": "uint256",
          "name": "",
          "type": "uint256"
        }
      ],
      "stateMutability": "view",
      "type": "function"
    },
    {
      "inputs": [
        {
          "internalType": "address",
          "name": "from",
          "type": "address"
        },
        {
          "internalType": "address",
          "name": "to",
          "type": "address"
        },
        {
          "internalType": "uint256",
          "name": "tokenId",
          "type": "uint256"
        }
      ],
      "name": "transferFrom",
      "outputs": [],
      "stateMutability": "nonpayable",
      "type": "function"
    },
    {
      "inputs": [
        {
          "internalType": "uint256",
          "name": "tokenId",
          "type": "uint256"
        }
      ],
      "name": "unstake",
      "outputs": [],
      "stateMutability": "nonpayable",
      "type": "function"
    }
  ],
  "bytecode": "0x60c06040526001600f5560016010553480156200001b57600080fd5b5060405162003d0538038062003d058339810160408190526200003e9162000112565b6040518060400160405280601381526020017f416c6765627261205374616b696e67204e4654000000000000000000000000008152506040518060400160405280600a815260200169414c47422d5354414b4560b01b8152508160009081620000a89190620001ef565b506001620000b78282620001ef565b5050506001600160a01b039182166080521660a052600d805464010000000033026001600160c01b031990911663ffffffff421617179055620002bb565b80516001600160a01b03811681146200010d57600080fd5b919050565b600080604083850312156200012657600080fd5b6200013183620000f5565b91506200014160208401620000f5565b90509250929050565b634e487b7160e01b600052604160045260246000fd5b600181811c908216806200017557607f821691505b6020821081036200019657634e487b7160e01b600052602260045260246000fd5b50919050565b601f821115620001ea57600081815260208120601f850160051c81016020861015620001c55750805b601f850160051c820191505b81811015620001e657828155600101620001d1565b5050505b505050565b81516001600160401b038111156200020b576200020b6200014a565b62000223816200021c845462000160565b846200019c565b602080601f8311600181146200025b5760008415620002425750858301515b600019600386901b1c1916600185901b178555620001e6565b600085815260208120601f198616915b828110156200028c578886015182559484019460019091019084016200026b565b5085821015620002ab5787850151600019600388901b60f8161c191681555b5050505050600190811b01905550565b60805160a0516139ec62000319600039600081816106c201528181611192015261129c0152600081816101f901528181610af701528181610e3a015281816110b1015281816111ea0152818161133d01526118cc01526139ec6000f3fe6080604052600436106101e25760003560e01c80636352211e11610102578063beceed3911610095578063d576dfc011610064578063d576dfc0146105b2578063d5a44f86146105e4578063e985e9c51461065a578063f556a79c146106b057600080fd5b8063beceed391461053c578063c87b56dd1461055c578063cab64bcd1461057c578063d3ea43501461059257600080fd5b806395d89b41116100d157806395d89b41146104c7578063a22cb465146104dc578063ac9650d8146104fc578063b88d4fde1461051c57600080fd5b80636352211e1461043c57806370a082311461045c5780637b0a47ee1461047c5780638da5cb5b1461049257600080fd5b806323b872dd1161017a57806342842e0e1161014957806342842e0e146103bc5780634969c134146103dc5780634d3a4abe146103fc5780634f6ccce71461041c57600080fd5b806323b872dd1461033c5780632e17de781461035c5780632f745c591461037c5780634011ea2a1461039c57600080fd5b8063095ea7b3116101b6578063095ea7b3146102b75780630962ef79146102d957806313af40351461030757806318160ddd1461032757600080fd5b8062e4dca7146101e757806301ffc9a71461024557806306fdde0314610275578063081812fc14610297575b600080fd5b3480156101f357600080fd5b5061021b7f000000000000000000000000000000000000000000000000000000000000000081565b60405173ffffffffffffffffffffffffffffffffffffffff90911681526020015b60405180910390f35b34801561025157600080fd5b5061026561026036600461312d565b6106e4565b604051901515815260200161023c565b34801561028157600080fd5b5061028a610740565b60405161023c91906131c0565b3480156102a357600080fd5b5061021b6102b23660046131d3565b6107d2565b3480156102c357600080fd5b506102d76102d2366004613210565b610806565b005b3480156102e557600080fd5b506102f96102f43660046131d3565b610997565b60405190815260200161023c565b34801561031357600080fd5b506102d761032236600461323a565b610b5d565b34801561033357600080fd5b506008546102f9565b34801561034857600080fd5b506102d7610357366004613255565b610bd8565b34801561036857600080fd5b506102d76103773660046131d3565b610c79565b34801561038857600080fd5b506102f9610397366004613210565b610efe565b3480156103a857600080fd5b506102d76103b7366004613291565b610fcd565b3480156103c857600080fd5b506102d76103d7366004613255565b611019565b3480156103e857600080fd5b506102d76103f73660046132c3565b611034565b34801561040857600080fd5b506102d76104173660046132c3565b611123565b34801561042857600080fd5b506102f96104373660046131d3565b61142b565b34801561044857600080fd5b5061021b6104573660046131d3565b6114e9565b34801561046857600080fd5b506102f961047736600461323a565b611575565b34801561048857600080fd5b506102f9600b5481565b34801561049e57600080fd5b50600d5461021b90640100000000900473ffffffffffffffffffffffffffffffffffffffff1681565b3480156104d357600080fd5b5061028a611643565b3480156104e857600080fd5b506102d76104f736600461330a565b611652565b61050f61050a366004613336565b611661565b60405161023c91906133ab565b34801561052857600080fd5b506102d76105373660046134ef565b6117d3565b34801561054857600080fd5b506102d76105573660046131d3565b61187b565b34801561056857600080fd5b5061028a6105773660046131d3565b611929565b34801561058857600080fd5b506102f9600c5481565b34801561059e57600080fd5b506102f96105ad3660046131d3565b61199d565b3480156105be57600080fd5b50600d546105cf9063ffffffff1681565b60405163ffffffff909116815260200161023c565b3480156105f057600080fd5b506106326105ff3660046131d3565b600a6020526000908152604090208054600182015460029092015463ffffffff8083169364010000000090930416919084565b6040805163ffffffff958616815294909316602085015291830152606082015260800161023c565b34801561066657600080fd5b5061026561067536600461359a565b73ffffffffffffffffffffffffffffffffffffffff918216600090815260056020908152604080832093909416825291909152205460ff1690565b3480156106bc57600080fd5b5061021b7f000000000000000000000000000000000000000000000000000000000000000081565b60007fffffffff0000000000000000000000000000000000000000000000000000000082167f780e9d6300000000000000000000000000000000000000000000000000000000148061073a575061073a82611aa8565b92915050565b60606000805461074f906135cd565b80601f016020809104026020016040519081016040528092919081815260200182805461077b906135cd565b80156107c85780601f1061079d576101008083540402835291602001916107c8565b820191906000526020600020905b8154815290600101906020018083116107ab57829003601f168201915b5050505050905090565b60006107dd82611b8b565b5060009081526004602052604090205473ffffffffffffffffffffffffffffffffffffffff1690565b6000610811826114e9565b90508073ffffffffffffffffffffffffffffffffffffffff168373ffffffffffffffffffffffffffffffffffffffff16036108d3576040517f08c379a000000000000000000000000000000000000000000000000000000000815260206004820152602160248201527f4552433732313a20617070726f76616c20746f2063757272656e74206f776e6560448201527f720000000000000000000000000000000000000000000000000000000000000060648201526084015b60405180910390fd5b3373ffffffffffffffffffffffffffffffffffffffff821614806108fc57506108fc8133610675565b610988576040517f08c379a000000000000000000000000000000000000000000000000000000000815260206004820152603e60248201527f4552433732313a20617070726f76652063616c6c6572206973206e6f7420746f60448201527f6b656e206f776e6572206e6f7220617070726f76656420666f7220616c6c000060648201526084016108ca565b6109928383611c19565b505050565b6000816109a43382611cb9565b610a0a576040517f08c379a000000000000000000000000000000000000000000000000000000000815260206004820152600d60248201527f4e6f74206175746f72697a65640000000000000000000000000000000000000060448201526064016108ca565b610a1342611d79565b6000838152600a602052604090206001810154610a8c576040517f08c379a000000000000000000000000000000000000000000000000000000000815260206004820152601860248201527f616d6f756e742073686f756c6420626520636f7272656374000000000000000060448201526064016108ca565b8054610ae890600a90610aa49063ffffffff16611eb0565b63ffffffff168360010154610ab9919061364f565b610ac391906136bb565b8260020154600f54610ad591906136cf565b6c01431e0fae6d7217caa0000000611f8b565b600f5460028301559250610b1d7f0000000000000000000000000000000000000000000000000000000000000000338561205b565b60408051848152602081018690527f022e3d29644ead4083349ca84d24bcac368b2461819b70f5921fea15de4dec4d910160405180910390a15050919050565b600d54640100000000900473ffffffffffffffffffffffffffffffffffffffff163314610b8957600080fd5b600d805473ffffffffffffffffffffffffffffffffffffffff909216640100000000027fffffffffffffffff0000000000000000000000000000000000000000ffffffff909216919091179055565b610be23382611cb9565b610c6e576040517f08c379a000000000000000000000000000000000000000000000000000000000815260206004820152602e60248201527f4552433732313a2063616c6c6572206973206e6f7420746f6b656e206f776e6560448201527f72206e6f7220617070726f76656400000000000000000000000000000000000060648201526084016108ca565b6109928383836121cb565b80610c843382611cb9565b610cea576040517f08c379a000000000000000000000000000000000000000000000000000000000815260206004820152600d60248201527f4e6f74206175746f72697a65640000000000000000000000000000000000000060448201526064016108ca565b610cf342611d79565b6000828152600a60209081526040918290208251608081018452815463ffffffff808216808452640100000000909204169382018490526001830154948201949094526002909101546060820152914291610d4e91906136e6565b63ffffffff1610610dbb576040517f08c379a000000000000000000000000000000000000000000000000000000000815260206004820152601160248201527f6c6f636b2069736e74206578706972656400000000000000000000000000000060448201526064016108ca565b6000600a610dcc8360000151611eb0565b610dd6919061370e565b90506000610e058263ffffffff168460400151610df3919061364f565b8460600151600f54610ad591906136cf565b90508163ffffffff168360400151610e1d919061364f565b600e6000828254610e2e91906136cf565b92505081905550610e6f7f000000000000000000000000000000000000000000000000000000000000000033838660400151610e6a9190613731565b61205b565b610e788561243d565b6000858152600a6020908152604080832080547fffffffffffffffffffffffffffffffffffffffffffffffff000000000000000016815560018101849055600201929092558482015182519081529081018790527f9045c2ac9b2026de8075f2701bbdde882cd5e830b3b1ead9a15b22f2b5b93742910160405180910390a15050505050565b6000610f0983611575565b8210610f97576040517f08c379a000000000000000000000000000000000000000000000000000000000815260206004820152602b60248201527f455243373231456e756d657261626c653a206f776e657220696e646578206f7560448201527f74206f6620626f756e647300000000000000000000000000000000000000000060648201526084016108ca565b5073ffffffffffffffffffffffffffffffffffffffff919091166000908152600660209081526040808320938352929052205490565b600d54640100000000900473ffffffffffffffffffffffffffffffffffffffff163314610ff957600080fd5b61100242611d79565b6fffffffffffffffffffffffffffffffff16600b55565b610992838383604051806020016040528060008152506117d3565b6000821161109e576040517f08c379a000000000000000000000000000000000000000000000000000000000815260206004820152601e60248201527f7374616b6520616d6f756e742073686f756c6420626520636f7272656374000060448201526064016108ca565b60006110aa8383612516565b90506110d87f0000000000000000000000000000000000000000000000000000000000000000333086612603565b6040805184815263ffffffff841660208201529081018290527f96047b327172431d3b43d48871c99f156c9dcf7d8ebbd5fdeb8b746000825e059060600160405180910390a1505050565b6000821161118d576040517f08c379a000000000000000000000000000000000000000000000000000000000815260206004820152601d60248201527f78414c4742416d6f756e742073686f756c6420626520636f727265637400000060448201526064016108ca565b6111b97f0000000000000000000000000000000000000000000000000000000000000000333085612603565b6040517f70a082310000000000000000000000000000000000000000000000000000000081523060048201526000907f000000000000000000000000000000000000000000000000000000000000000073ffffffffffffffffffffffffffffffffffffffff16906370a0823190602401602060405180830381865afa158015611246573d6000803e3d6000fd5b505050506040513d601f19601f8201168201806040525081019061126a9190613749565b6040517f67dfd4c9000000000000000000000000000000000000000000000000000000008152600481018590529091507f000000000000000000000000000000000000000000000000000000000000000073ffffffffffffffffffffffffffffffffffffffff16906367dfd4c990602401600060405180830381600087803b1580156112f557600080fd5b505af1158015611309573d6000803e3d6000fd5b50506040517f70a08231000000000000000000000000000000000000000000000000000000008152306004820152600092507f000000000000000000000000000000000000000000000000000000000000000073ffffffffffffffffffffffffffffffffffffffff1691506370a0823190602401602060405180830381865afa15801561139a573d6000803e3d6000fd5b505050506040513d601f19601f820116820180604052508101906113be9190613749565b905060006113cc83836136cf565b905060006113da8286612516565b6040805184815263ffffffff881660208201529081018290529091507f27df482409e1fee770faa585c509e15642bfcd60ab6e4ee0d2b5732edbf2cb889060600160405180910390a1505050505050565b600061143660085490565b82106114c4576040517f08c379a000000000000000000000000000000000000000000000000000000000815260206004820152602c60248201527f455243373231456e756d657261626c653a20676c6f62616c20696e646578206f60448201527f7574206f6620626f756e6473000000000000000000000000000000000000000060648201526084016108ca565b600882815481106114d7576114d7613762565b90600052602060002001549050919050565b60008181526002602052604081205473ffffffffffffffffffffffffffffffffffffffff168061073a576040517f08c379a000000000000000000000000000000000000000000000000000000000815260206004820152601860248201527f4552433732313a20696e76616c696420746f6b656e204944000000000000000060448201526064016108ca565b600073ffffffffffffffffffffffffffffffffffffffff821661161a576040517f08c379a000000000000000000000000000000000000000000000000000000000815260206004820152602960248201527f4552433732313a2061646472657373207a65726f206973206e6f74206120766160448201527f6c6964206f776e6572000000000000000000000000000000000000000000000060648201526084016108ca565b5073ffffffffffffffffffffffffffffffffffffffff1660009081526003602052604090205490565b60606001805461074f906135cd565b61165d33838361277c565b5050565b60608167ffffffffffffffff81111561167c5761167c61342b565b6040519080825280602002602001820160405280156116af57816020015b606081526020019060019003908161169a5790505b50905060005b828110156117cc57600080308686858181106116d3576116d3613762565b90506020028101906116e59190613791565b6040516116f39291906137fd565b600060405180830381855af49150503d806000811461172e576040519150601f19603f3d011682016040523d82523d6000602084013e611733565b606091505b5091509150816117995760448151101561174c57600080fd5b60048101905080806020019051810190611766919061380d565b6040517f08c379a00000000000000000000000000000000000000000000000000000000081526004016108ca91906131c0565b808484815181106117ac576117ac613762565b6020026020010181905250505080806117c490613884565b9150506116b5565b5092915050565b6117dd3383611cb9565b611869576040517f08c379a000000000000000000000000000000000000000000000000000000000815260206004820152602e60248201527f4552433732313a2063616c6c6572206973206e6f7420746f6b656e206f776e6560448201527f72206e6f7220617070726f76656400000000000000000000000000000000000060648201526084016108ca565b611875848484846128a9565b50505050565b600d54640100000000900473ffffffffffffffffffffffffffffffffffffffff1633146118a757600080fd5b6118b042611d79565b80156118f35780600c546118c49190613731565b600c556118f37f0000000000000000000000000000000000000000000000000000000000000000333084612603565b6040518181527fa8c8f6c9639d5a378696689ad02c4ea707de67f3175f609f1c016d3ce94297899060200160405180910390a150565b606061193482611b8b565b600061194b60408051602081019091526000815290565b9050600081511161196b5760405180602001604052806000815250611996565b806119758461294c565b6040516020016119869291906138bc565b6040516020818303038152906040525b9392505050565b600b54600f546000919082826119b45760006119b8565b600c545b90508015611a1557600d546000906119d69063ffffffff16426136cf565b6119e0908561364f565b9050818111156119ed5750805b611a07816c01431e0fae6d7217caa0000000600e54611f8b565b611a119084613731565b9250505b6000858152600a60208181526040928390208351608081018552815463ffffffff8082168084526401000000009092041693820193909352600182015494810194909452600201546060840152611a9e9190611a7090611eb0565b63ffffffff168360400151611a85919061364f565b611a8f91906136bb565b6060830151610ad590866136cf565b9695505050505050565b60007fffffffff0000000000000000000000000000000000000000000000000000000082167f80ac58cd000000000000000000000000000000000000000000000000000000001480611b3b57507fffffffff0000000000000000000000000000000000000000000000000000000082167f5b5e139f00000000000000000000000000000000000000000000000000000000145b8061073a57507f01ffc9a7000000000000000000000000000000000000000000000000000000007fffffffff0000000000000000000000000000000000000000000000000000000083161461073a565b60008181526002602052604090205473ffffffffffffffffffffffffffffffffffffffff16611c16576040517f08c379a000000000000000000000000000000000000000000000000000000000815260206004820152601860248201527f4552433732313a20696e76616c696420746f6b656e204944000000000000000060448201526064016108ca565b50565b600081815260046020526040902080547fffffffffffffffffffffffff00000000000000000000000000000000000000001673ffffffffffffffffffffffffffffffffffffffff84169081179091558190611c73826114e9565b73ffffffffffffffffffffffffffffffffffffffff167f8c5be1e5ebec7d5bd14f71427d1e84f3dd0314c0f7b2291e5b200ac8c7c3b92560405160405180910390a45050565b600080611cc5836114e9565b90508073ffffffffffffffffffffffffffffffffffffffff168473ffffffffffffffffffffffffffffffffffffffff161480611d33575073ffffffffffffffffffffffffffffffffffffffff80821660009081526005602090815260408083209388168352929052205460ff165b80611d7157508373ffffffffffffffffffffffffffffffffffffffff16611d59846107d2565b73ffffffffffffffffffffffffffffffffffffffff16145b949350505050565b600b54600081611d8a576000611d8e565b600c545b90508015611e77576000600e5411611e02576040517f08c379a000000000000000000000000000000000000000000000000000000000815260206004820152600d60248201527f706f6f6c20697320656d7074790000000000000000000000000000000000000060448201526064016108ca565b600d54600090611e189063ffffffff16856138e2565b611e289063ffffffff168461364f565b905081811115611e355750805b611e3f81836136cf565b600c81905550611e5f816c01431e0fae6d7217caa0000000600e54611f8b565b600f6000828254611e709190613731565b9091555050505b5050600d80547fffffffffffffffffffffffffffffffffffffffffffffffffffffffff000000001663ffffffff92909216919091179055565b60008163ffffffff16607803611ec85750600a919050565b8163ffffffff1661012c03611edf5750600c919050565b8163ffffffff166101a403611ef65750600f919050565b8163ffffffff166101f403611f0d57506014919050565b8163ffffffff1661025803611f2457506019919050565b6040517f08c379a000000000000000000000000000000000000000000000000000000000815260206004820152600e60248201527f756e636f7272656374206c6f636b00000000000000000000000000000000000060448201526064016108ca565b919050565b600080807fffffffffffffffffffffffffffffffffffffffffffffffffffffffffffffffff85870985870292508281108382030391505080600003611fe25760008411611fd757600080fd5b508290049050611996565b808411611fee57600080fd5b6000848688096000868103871696879004966002600389028118808a02820302808a02820302808a02820302808a02820302808a02820302808a02909103029181900381900460010186841190950394909402919094039290920491909117919091029150509392505050565b6040805173ffffffffffffffffffffffffffffffffffffffff8481166024830152604480830185905283518084039091018152606490920183526020820180517bffffffffffffffffffffffffffffffffffffffffffffffffffffffff167fa9059cbb0000000000000000000000000000000000000000000000000000000017905291516000928392908716916120f29190613907565b6000604051808303816000865af19150503d806000811461212f576040519150601f19603f3d011682016040523d82523d6000602084013e612134565b606091505b509150915081801561215e57508051158061215e57508080602001905181019061215e9190613923565b6121c4576040517f08c379a000000000000000000000000000000000000000000000000000000000815260206004820152600260248201527f535400000000000000000000000000000000000000000000000000000000000060448201526064016108ca565b5050505050565b8273ffffffffffffffffffffffffffffffffffffffff166121eb826114e9565b73ffffffffffffffffffffffffffffffffffffffff161461228e576040517f08c379a000000000000000000000000000000000000000000000000000000000815260206004820152602560248201527f4552433732313a207472616e736665722066726f6d20696e636f72726563742060448201527f6f776e657200000000000000000000000000000000000000000000000000000060648201526084016108ca565b73ffffffffffffffffffffffffffffffffffffffff8216612330576040517f08c379a0000000000000000000000000000000000000000000000000000000008152602060048201526024808201527f4552433732313a207472616e7366657220746f20746865207a65726f2061646460448201527f726573730000000000000000000000000000000000000000000000000000000060648201526084016108ca565b61233b838383612a81565b612346600082611c19565b73ffffffffffffffffffffffffffffffffffffffff8316600090815260036020526040812080546001929061237c9084906136cf565b909155505073ffffffffffffffffffffffffffffffffffffffff821660009081526003602052604081208054600192906123b7908490613731565b909155505060008181526002602052604080822080547fffffffffffffffffffffffff00000000000000000000000000000000000000001673ffffffffffffffffffffffffffffffffffffffff86811691821790925591518493918716917fddf252ad1be2c89b69c2b068fc378daa952ba7f163c4a11628f55a4df523b3ef91a4505050565b6000612448826114e9565b905061245681600084612a81565b612461600083611c19565b73ffffffffffffffffffffffffffffffffffffffff811660009081526003602052604081208054600192906124979084906136cf565b909155505060008281526002602052604080822080547fffffffffffffffffffffffff00000000000000000000000000000000000000001690555183919073ffffffffffffffffffffffffffffffffffffffff8416907fddf252ad1be2c89b69c2b068fc378daa952ba7f163c4a11628f55a4df523b3ef908390a45050565b600061252142611d79565b600a61252c83611eb0565b61253c9063ffffffff168561364f565b61254691906136bb565b600e60008282546125579190613731565b90915550506010805490600061256c83613884565b909155506040805160808101825263ffffffff80861682524281166020808401918252838501898152600f54606086019081526000888152600a909352959091209351845492518416640100000000027fffffffffffffffffffffffffffffffffffffffffffffffff00000000000000009093169316929092171782555160018201559051600290910155905061073a3382612b87565b6040805173ffffffffffffffffffffffffffffffffffffffff85811660248301528481166044830152606480830185905283518084039091018152608490920183526020820180517bffffffffffffffffffffffffffffffffffffffffffffffffffffffff167f23b872dd0000000000000000000000000000000000000000000000000000000017905291516000928392908816916126a29190613907565b6000604051808303816000865af19150503d80600081146126df576040519150601f19603f3d011682016040523d82523d6000602084013e6126e4565b606091505b509150915081801561270e57508051158061270e57508080602001905181019061270e9190613923565b612774576040517f08c379a000000000000000000000000000000000000000000000000000000000815260206004820152600360248201527f535446000000000000000000000000000000000000000000000000000000000060448201526064016108ca565b505050505050565b8173ffffffffffffffffffffffffffffffffffffffff168373ffffffffffffffffffffffffffffffffffffffff1603612811576040517f08c379a000000000000000000000000000000000000000000000000000000000815260206004820152601960248201527f4552433732313a20617070726f766520746f2063616c6c65720000000000000060448201526064016108ca565b73ffffffffffffffffffffffffffffffffffffffff83811660008181526005602090815260408083209487168084529482529182902080547fffffffffffffffffffffffffffffffffffffffffffffffffffffffffffffff001686151590811790915591519182527f17307eab39ab6107e8899845ad3d59bd9653f200f220920489ca2b5937696c31910160405180910390a3505050565b6128b48484846121cb565b6128c084848484612d55565b611875576040517f08c379a000000000000000000000000000000000000000000000000000000000815260206004820152603260248201527f4552433732313a207472616e7366657220746f206e6f6e20455243373231526560448201527f63656976657220696d706c656d656e746572000000000000000000000000000060648201526084016108ca565b60608160000361298f57505060408051808201909152600181527f3000000000000000000000000000000000000000000000000000000000000000602082015290565b8160005b81156129b957806129a381613884565b91506129b29050600a836136bb565b9150612993565b60008167ffffffffffffffff8111156129d4576129d461342b565b6040519080825280601f01601f1916602001820160405280156129fe576020820181803683370190505b5090505b8415611d7157612a136001836136cf565b9150612a20600a86613940565b612a2b906030613731565b60f81b818381518110612a4057612a40613762565b60200101907effffffffffffffffffffffffffffffffffffffffffffffffffffffffffffff1916908160001a905350612a7a600a866136bb565b9450612a02565b73ffffffffffffffffffffffffffffffffffffffff8316612ae957612ae481600880546000838152600960205260408120829055600182018355919091527ff3f7a9fe364faab93b216da50a3214154f22a0a2b415b23a84c8169e8b636ee30155565b612b26565b8173ffffffffffffffffffffffffffffffffffffffff168373ffffffffffffffffffffffffffffffffffffffff1614612b2657612b268382612f48565b73ffffffffffffffffffffffffffffffffffffffff8216612b4a5761099281612fff565b8273ffffffffffffffffffffffffffffffffffffffff168273ffffffffffffffffffffffffffffffffffffffff16146109925761099282826130ae565b73ffffffffffffffffffffffffffffffffffffffff8216612c04576040517f08c379a000000000000000000000000000000000000000000000000000000000815260206004820181905260248201527f4552433732313a206d696e7420746f20746865207a65726f206164647265737360448201526064016108ca565b60008181526002602052604090205473ffffffffffffffffffffffffffffffffffffffff1615612c90576040517f08c379a000000000000000000000000000000000000000000000000000000000815260206004820152601c60248201527f4552433732313a20746f6b656e20616c7265616479206d696e7465640000000060448201526064016108ca565b612c9c60008383612a81565b73ffffffffffffffffffffffffffffffffffffffff82166000908152600360205260408120805460019290612cd2908490613731565b909155505060008181526002602052604080822080547fffffffffffffffffffffffff00000000000000000000000000000000000000001673ffffffffffffffffffffffffffffffffffffffff861690811790915590518392907fddf252ad1be2c89b69c2b068fc378daa952ba7f163c4a11628f55a4df523b3ef908290a45050565b600073ffffffffffffffffffffffffffffffffffffffff84163b15612f3d576040517f150b7a0200000000000000000000000000000000000000000000000000000000815273ffffffffffffffffffffffffffffffffffffffff85169063150b7a0290612dcc903390899088908890600401613954565b6020604051808303816000875af1925050508015612e25575060408051601f3d9081017fffffffffffffffffffffffffffffffffffffffffffffffffffffffffffffffe0168201909252612e2291810190613993565b60015b612ef2573d808015612e53576040519150601f19603f3d011682016040523d82523d6000602084013e612e58565b606091505b508051600003612eea576040517f08c379a000000000000000000000000000000000000000000000000000000000815260206004820152603260248201527f4552433732313a207472616e7366657220746f206e6f6e20455243373231526560448201527f63656976657220696d706c656d656e746572000000000000000000000000000060648201526084016108ca565b805181602001fd5b7fffffffff00000000000000000000000000000000000000000000000000000000167f150b7a0200000000000000000000000000000000000000000000000000000000149050611d71565b506001949350505050565b60006001612f5584611575565b612f5f91906136cf565b600083815260076020526040902054909150808214612fbf5773ffffffffffffffffffffffffffffffffffffffff841660009081526006602090815260408083208584528252808320548484528184208190558352600790915290208190555b50600091825260076020908152604080842084905573ffffffffffffffffffffffffffffffffffffffff9094168352600681528383209183525290812055565b600854600090613011906001906136cf565b6000838152600960205260408120546008805493945090928490811061303957613039613762565b90600052602060002001549050806008838154811061305a5761305a613762565b6000918252602080832090910192909255828152600990915260408082208490558582528120556008805480613092576130926139b0565b6001900381819060005260206000200160009055905550505050565b60006130b983611575565b73ffffffffffffffffffffffffffffffffffffffff9093166000908152600660209081526040808320868452825280832085905593825260079052919091209190915550565b7fffffffff0000000000000000000000000000000000000000000000000000000081168114611c1657600080fd5b60006020828403121561313f57600080fd5b8135611996816130ff565b60005b8381101561316557818101518382015260200161314d565b838111156118755750506000910152565b6000815180845261318e81602086016020860161314a565b601f017fffffffffffffffffffffffffffffffffffffffffffffffffffffffffffffffe0169290920160200192915050565b6020815260006119966020830184613176565b6000602082840312156131e557600080fd5b5035919050565b803573ffffffffffffffffffffffffffffffffffffffff81168114611f8657600080fd5b6000806040838503121561322357600080fd5b61322c836131ec565b946020939093013593505050565b60006020828403121561324c57600080fd5b611996826131ec565b60008060006060848603121561326a57600080fd5b613273846131ec565b9250613281602085016131ec565b9150604084013590509250925092565b6000602082840312156132a357600080fd5b81356fffffffffffffffffffffffffffffffff8116811461199657600080fd5b600080604083850312156132d657600080fd5b82359150602083013563ffffffff811681146132f157600080fd5b809150509250929050565b8015158114611c1657600080fd5b6000806040838503121561331d57600080fd5b613326836131ec565b915060208301356132f1816132fc565b6000806020838503121561334957600080fd5b823567ffffffffffffffff8082111561336157600080fd5b818501915085601f83011261337557600080fd5b81358181111561338457600080fd5b8660208260051b850101111561339957600080fd5b60209290920196919550909350505050565b6000602080830181845280855180835260408601915060408160051b870101925083870160005b8281101561341e577fffffffffffffffffffffffffffffffffffffffffffffffffffffffffffffffc088860301845261340c858351613176565b945092850192908501906001016133d2565b5092979650505050505050565b7f4e487b7100000000000000000000000000000000000000000000000000000000600052604160045260246000fd5b604051601f82017fffffffffffffffffffffffffffffffffffffffffffffffffffffffffffffffe016810167ffffffffffffffff811182821017156134a1576134a161342b565b604052919050565b600067ffffffffffffffff8211156134c3576134c361342b565b50601f017fffffffffffffffffffffffffffffffffffffffffffffffffffffffffffffffe01660200190565b6000806000806080858703121561350557600080fd5b61350e856131ec565b935061351c602086016131ec565b925060408501359150606085013567ffffffffffffffff81111561353f57600080fd5b8501601f8101871361355057600080fd5b803561356361355e826134a9565b61345a565b81815288602083850101111561357857600080fd5b8160208401602083013760006020838301015280935050505092959194509250565b600080604083850312156135ad57600080fd5b6135b6836131ec565b91506135c4602084016131ec565b90509250929050565b600181811c908216806135e157607f821691505b60208210810361361a577f4e487b7100000000000000000000000000000000000000000000000000000000600052602260045260246000fd5b50919050565b7f4e487b7100000000000000000000000000000000000000000000000000000000600052601160045260246000fd5b6000817fffffffffffffffffffffffffffffffffffffffffffffffffffffffffffffffff048311821515161561368757613687613620565b500290565b7f4e487b7100000000000000000000000000000000000000000000000000000000600052601260045260246000fd5b6000826136ca576136ca61368c565b500490565b6000828210156136e1576136e1613620565b500390565b600063ffffffff80831681851680830382111561370557613705613620565b01949350505050565b600063ffffffff808416806137255761372561368c565b92169190910492915050565b6000821982111561374457613744613620565b500190565b60006020828403121561375b57600080fd5b5051919050565b7f4e487b7100000000000000000000000000000000000000000000000000000000600052603260045260246000fd5b60008083357fffffffffffffffffffffffffffffffffffffffffffffffffffffffffffffffe18436030181126137c657600080fd5b83018035915067ffffffffffffffff8211156137e157600080fd5b6020019150368190038213156137f657600080fd5b9250929050565b8183823760009101908152919050565b60006020828403121561381f57600080fd5b815167ffffffffffffffff81111561383657600080fd5b8201601f8101841361384757600080fd5b805161385561355e826134a9565b81815285602083850101111561386a57600080fd5b61387b82602083016020860161314a565b95945050505050565b60007fffffffffffffffffffffffffffffffffffffffffffffffffffffffffffffffff82036138b5576138b5613620565b5060010190565b600083516138ce81846020880161314a565b83519083019061370581836020880161314a565b600063ffffffff838116908316818110156138ff576138ff613620565b039392505050565b6000825161391981846020870161314a565b9190910192915050565b60006020828403121561393557600080fd5b8151611996816132fc565b60008261394f5761394f61368c565b500690565b600073ffffffffffffffffffffffffffffffffffffffff808716835280861660208401525083604083015260806060830152611a9e6080830184613176565b6000602082840312156139a557600080fd5b8151611996816130ff565b7f4e487b7100000000000000000000000000000000000000000000000000000000600052603160045260246000fdfea164736f6c634300080f000a",
  "linkReferences": {},
  "deployedLinkReferences": {}
}