{
  "_format": "hh-sol-artifact-1",
  "contractName": "Staking",
  "sourceName": "contracts/Staking.sol",
  "abi": [
    {
      "inputs": [
        {
          "internalType": "address",
          "name": "_ALGB",
          "type": "address"
        },
        {
          "internalType": "address",
          "name": "_xALGB",
          "type": "address"
        }
      ],
      "stateMutability": "nonpayable",
      "type": "constructor"
    },
    {
      "anonymous": false,
      "inputs": [
        {
          "indexed": false,
          "internalType": "uint256",
          "name": "amount",
          "type": "uint256"
        }
      ],
      "name": "AddRewards",
      "type": "event"
    },
    {
      "anonymous": false,
      "inputs": [
        {
          "indexed": true,
          "internalType": "address",
          "name": "owner",
          "type": "address"
        },
        {
          "indexed": true,
          "internalType": "address",
          "name": "approved",
          "type": "address"
        },
        {
          "indexed": true,
          "internalType": "uint256",
          "name": "tokenId",
          "type": "uint256"
        }
      ],
      "name": "Approval",
      "type": "event"
    },
    {
      "anonymous": false,
      "inputs": [
        {
          "indexed": true,
          "internalType": "address",
          "name": "owner",
          "type": "address"
        },
        {
          "indexed": true,
          "internalType": "address",
          "name": "operator",
          "type": "address"
        },
        {
          "indexed": false,
          "internalType": "bool",
          "name": "approved",
          "type": "bool"
        }
      ],
      "name": "ApprovalForAll",
      "type": "event"
    },
    {
      "anonymous": false,
      "inputs": [
        {
          "indexed": false,
          "internalType": "uint256",
          "name": "amount",
          "type": "uint256"
        },
        {
          "indexed": false,
          "internalType": "uint256",
          "name": "tokenId",
          "type": "uint256"
        }
      ],
      "name": "Claim",
      "type": "event"
    },
    {
      "anonymous": false,
      "inputs": [
        {
          "indexed": false,
          "internalType": "uint256",
          "name": "amount",
          "type": "uint256"
        },
        {
          "indexed": false,
          "internalType": "uint32",
          "name": "lockTime",
          "type": "uint32"
        },
        {
          "indexed": false,
          "internalType": "uint256",
          "name": "tokenId",
          "type": "uint256"
        }
      ],
      "name": "Enter",
      "type": "event"
    },
    {
      "anonymous": false,
      "inputs": [
        {
          "indexed": false,
          "internalType": "uint256",
          "name": "amount",
          "type": "uint256"
        },
        {
          "indexed": false,
          "internalType": "uint32",
          "name": "lockTime",
          "type": "uint32"
        },
        {
          "indexed": false,
          "internalType": "uint256",
          "name": "tokenId",
          "type": "uint256"
        }
      ],
      "name": "Migrate",
      "type": "event"
    },
    {
      "anonymous": false,
      "inputs": [
        {
          "indexed": true,
          "internalType": "address",
          "name": "from",
          "type": "address"
        },
        {
          "indexed": true,
          "internalType": "address",
          "name": "to",
          "type": "address"
        },
        {
          "indexed": true,
          "internalType": "uint256",
          "name": "tokenId",
          "type": "uint256"
        }
      ],
      "name": "Transfer",
      "type": "event"
    },
    {
      "anonymous": false,
      "inputs": [
        {
          "indexed": false,
          "internalType": "uint256",
          "name": "amount",
          "type": "uint256"
        },
        {
          "indexed": false,
          "internalType": "uint256",
          "name": "tokenId",
          "type": "uint256"
        }
      ],
      "name": "Unstake",
      "type": "event"
    },
    {
      "inputs": [],
      "name": "ALGB",
      "outputs": [
        {
          "internalType": "contract IERC20Minimal",
          "name": "",
          "type": "address"
        }
      ],
      "stateMutability": "view",
      "type": "function"
    },
    {
      "inputs": [
        {
          "internalType": "uint256",
          "name": "amount",
          "type": "uint256"
        }
      ],
      "name": "addRewards",
      "outputs": [],
      "stateMutability": "nonpayable",
      "type": "function"
    },
    {
      "inputs": [
        {
          "internalType": "address",
          "name": "to",
          "type": "address"
        },
        {
          "internalType": "uint256",
          "name": "tokenId",
          "type": "uint256"
        }
      ],
      "name": "approve",
      "outputs": [],
      "stateMutability": "nonpayable",
      "type": "function"
    },
    {
      "inputs": [
        {
          "internalType": "address",
          "name": "owner",
          "type": "address"
        }
      ],
      "name": "balanceOf",
      "outputs": [
        {
          "internalType": "uint256",
          "name": "",
          "type": "uint256"
        }
      ],
      "stateMutability": "view",
      "type": "function"
    },
    {
      "inputs": [
        {
          "internalType": "uint256",
          "name": "tokenId",
          "type": "uint256"
        }
      ],
      "name": "calculateRewards",
      "outputs": [
        {
          "internalType": "uint256",
          "name": "rewards",
          "type": "uint256"
        }
      ],
      "stateMutability": "view",
      "type": "function"
    },
    {
      "inputs": [
        {
          "internalType": "uint256",
          "name": "tokenId",
          "type": "uint256"
        }
      ],
      "name": "claimRewards",
      "outputs": [],
      "stateMutability": "nonpayable",
      "type": "function"
    },
    {
      "inputs": [
        {
          "internalType": "uint256",
          "name": "_amount",
          "type": "uint256"
        },
        {
          "internalType": "uint32",
          "name": "_lockTime",
          "type": "uint32"
        }
      ],
      "name": "enterStaking",
      "outputs": [],
      "stateMutability": "nonpayable",
      "type": "function"
    },
    {
      "inputs": [
        {
          "internalType": "uint256",
          "name": "tokenId",
          "type": "uint256"
        }
      ],
      "name": "getApproved",
      "outputs": [
        {
          "internalType": "address",
          "name": "",
          "type": "address"
        }
      ],
      "stateMutability": "view",
      "type": "function"
    },
    {
      "inputs": [
        {
          "internalType": "address",
          "name": "owner",
          "type": "address"
        },
        {
          "internalType": "address",
          "name": "operator",
          "type": "address"
        }
      ],
      "name": "isApprovedForAll",
      "outputs": [
        {
          "internalType": "bool",
          "name": "",
          "type": "bool"
        }
      ],
      "stateMutability": "view",
      "type": "function"
    },
    {
      "inputs": [
        {
          "internalType": "uint256",
          "name": "xALGBAmount",
          "type": "uint256"
        },
        {
          "internalType": "uint32",
          "name": "_lockTime",
          "type": "uint32"
        }
      ],
      "name": "migrate",
      "outputs": [],
      "stateMutability": "nonpayable",
      "type": "function"
    },
    {
      "inputs": [
        {
          "internalType": "bytes[]",
          "name": "data",
          "type": "bytes[]"
        }
      ],
      "name": "multicall",
      "outputs": [
        {
          "internalType": "bytes[]",
          "name": "results",
          "type": "bytes[]"
        }
      ],
      "stateMutability": "payable",
      "type": "function"
    },
    {
      "inputs": [],
      "name": "name",
      "outputs": [
        {
          "internalType": "string",
          "name": "",
          "type": "string"
        }
      ],
      "stateMutability": "view",
      "type": "function"
    },
    {
      "inputs": [
        {
          "internalType": "uint256",
          "name": "tokenId",
          "type": "uint256"
        }
      ],
      "name": "ownerOf",
      "outputs": [
        {
          "internalType": "address",
          "name": "",
          "type": "address"
        }
      ],
      "stateMutability": "view",
      "type": "function"
    },
    {
      "inputs": [
        {
          "internalType": "address",
          "name": "from",
          "type": "address"
        },
        {
          "internalType": "address",
          "name": "to",
          "type": "address"
        },
        {
          "internalType": "uint256",
          "name": "tokenId",
          "type": "uint256"
        }
      ],
      "name": "safeTransferFrom",
      "outputs": [],
      "stateMutability": "nonpayable",
      "type": "function"
    },
    {
      "inputs": [
        {
          "internalType": "address",
          "name": "from",
          "type": "address"
        },
        {
          "internalType": "address",
          "name": "to",
          "type": "address"
        },
        {
          "internalType": "uint256",
          "name": "tokenId",
          "type": "uint256"
        },
        {
          "internalType": "bytes",
          "name": "data",
          "type": "bytes"
        }
      ],
      "name": "safeTransferFrom",
      "outputs": [],
      "stateMutability": "nonpayable",
      "type": "function"
    },
    {
      "inputs": [
        {
          "internalType": "address",
          "name": "operator",
          "type": "address"
        },
        {
          "internalType": "bool",
          "name": "approved",
          "type": "bool"
        }
      ],
      "name": "setApprovalForAll",
      "outputs": [],
      "stateMutability": "nonpayable",
      "type": "function"
    },
    {
      "inputs": [
        {
          "internalType": "uint256",
          "name": "",
          "type": "uint256"
        }
      ],
      "name": "stakes",
      "outputs": [
        {
          "internalType": "uint32",
          "name": "lockTime",
          "type": "uint32"
        },
        {
          "internalType": "uint32",
          "name": "lockStartTime",
          "type": "uint32"
        },
        {
          "internalType": "uint256",
          "name": "amount",
          "type": "uint256"
        },
        {
          "internalType": "uint256",
          "name": "lastRewardGrowth",
          "type": "uint256"
        }
      ],
      "stateMutability": "view",
      "type": "function"
    },
    {
      "inputs": [],
      "name": "stakingV1",
      "outputs": [
        {
          "internalType": "contract IStakingV1",
          "name": "",
          "type": "address"
        }
      ],
      "stateMutability": "view",
      "type": "function"
    },
    {
      "inputs": [
        {
          "internalType": "bytes4",
          "name": "interfaceId",
          "type": "bytes4"
        }
      ],
      "name": "supportsInterface",
      "outputs": [
        {
          "internalType": "bool",
          "name": "",
          "type": "bool"
        }
      ],
      "stateMutability": "view",
      "type": "function"
    },
    {
      "inputs": [],
      "name": "symbol",
      "outputs": [
        {
          "internalType": "string",
          "name": "",
          "type": "string"
        }
      ],
      "stateMutability": "view",
      "type": "function"
    },
    {
      "inputs": [
        {
          "internalType": "uint256",
          "name": "index",
          "type": "uint256"
        }
      ],
      "name": "tokenByIndex",
      "outputs": [
        {
          "internalType": "uint256",
          "name": "",
          "type": "uint256"
        }
      ],
      "stateMutability": "view",
      "type": "function"
    },
    {
      "inputs": [
        {
          "internalType": "address",
          "name": "owner",
          "type": "address"
        },
        {
          "internalType": "uint256",
          "name": "index",
          "type": "uint256"
        }
      ],
      "name": "tokenOfOwnerByIndex",
      "outputs": [
        {
          "internalType": "uint256",
          "name": "",
          "type": "uint256"
        }
      ],
      "stateMutability": "view",
      "type": "function"
    },
    {
      "inputs": [
        {
          "internalType": "uint256",
          "name": "tokenId",
          "type": "uint256"
        }
      ],
      "name": "tokenURI",
      "outputs": [
        {
          "internalType": "string",
          "name": "",
          "type": "string"
        }
      ],
      "stateMutability": "view",
      "type": "function"
    },
    {
      "inputs": [],
      "name": "totalSupply",
      "outputs": [
        {
          "internalType": "uint256",
          "name": "",
          "type": "uint256"
        }
      ],
      "stateMutability": "view",
      "type": "function"
    },
    {
      "inputs": [
        {
          "internalType": "address",
          "name": "from",
          "type": "address"
        },
        {
          "internalType": "address",
          "name": "to",
          "type": "address"
        },
        {
          "internalType": "uint256",
          "name": "tokenId",
          "type": "uint256"
        }
      ],
      "name": "transferFrom",
      "outputs": [],
      "stateMutability": "nonpayable",
      "type": "function"
    },
    {
      "inputs": [
        {
          "internalType": "uint256",
          "name": "tokenId",
          "type": "uint256"
        }
      ],
      "name": "unstake",
      "outputs": [],
      "stateMutability": "nonpayable",
      "type": "function"
    }
  ],
  "bytecode": "0x60c06040526001600c556001600d553480156200001b57600080fd5b5060405162003919380380620039198339810160408190526200003e91620000ef565b6040518060400160405280601381526020017f416c6765627261205374616b696e67204e4654000000000000000000000000008152506040518060400160405280600a815260200169414c47422d5354414b4560b01b8152508160009081620000a89190620001cc565b506001620000b78282620001cc565b5050506001600160a01b039182166080521660a05262000298565b80516001600160a01b0381168114620000ea57600080fd5b919050565b600080604083850312156200010357600080fd5b6200010e83620000d2565b91506200011e60208401620000d2565b90509250929050565b634e487b7160e01b600052604160045260246000fd5b600181811c908216806200015257607f821691505b6020821081036200017357634e487b7160e01b600052602260045260246000fd5b50919050565b601f821115620001c757600081815260208120601f850160051c81016020861015620001a25750805b601f850160051c820191505b81811015620001c357828155600101620001ae565b5050505b505050565b81516001600160401b03811115620001e857620001e862000127565b6200020081620001f984546200013d565b8462000179565b602080601f8311600181146200023857600084156200021f5750858301515b600019600386901b1c1916600185901b178555620001c3565b600085815260208120601f198616915b82811015620002695788860151825594840194600190910190840162000248565b5085821015620002885787850151600019600388901b60f8161c191681555b5050505050600190811b01905550565b60805160a051613623620002f6600039600081816105a901528181610fc701526110d10152600081816101b70152818161096201528181610c1601528181610e630152818161101f01528181611172015261182d01526136236000f3fe6080604052600436106101a05760003560e01c80634f6ccce7116100e1578063b88d4fde1161008a578063d3ea435011610064578063d3ea4350146104ab578063d5a44f86146104cb578063e985e9c514610541578063f556a79c1461059757600080fd5b8063b88d4fde1461044b578063beceed391461046b578063c87b56dd1461048b57600080fd5b806395d89b41116100bb57806395d89b41146103f6578063a22cb4651461040b578063ac9650d81461042b57600080fd5b80634f6ccce7146103965780636352211e146103b657806370a08231146103d657600080fd5b806318160ddd1161014e5780632f745c59116101285780632f745c591461031657806342842e0e146103365780634969c134146103565780634d3a4abe1461037657600080fd5b806318160ddd146102b757806323b872dd146102d65780632e17de78146102f657600080fd5b8063081812fc1161017f578063081812fc14610255578063095ea7b3146102755780630962ef791461029757600080fd5b8062e4dca7146101a557806301ffc9a71461020357806306fdde0314610233575b600080fd5b3480156101b157600080fd5b506101d97f000000000000000000000000000000000000000000000000000000000000000081565b60405173ffffffffffffffffffffffffffffffffffffffff90911681526020015b60405180910390f35b34801561020f57600080fd5b5061022361021e366004612dd4565b6105cb565b60405190151581526020016101fa565b34801561023f57600080fd5b50610248610627565b6040516101fa9190612e67565b34801561026157600080fd5b506101d9610270366004612e7a565b6106b9565b34801561028157600080fd5b50610295610290366004612eb7565b6106ed565b005b3480156102a357600080fd5b506102956102b2366004612e7a565b61087e565b3480156102c357600080fd5b506008545b6040519081526020016101fa565b3480156102e257600080fd5b506102956102f1366004612ee1565b6109c9565b34801561030257600080fd5b50610295610311366004612e7a565b610a6a565b34801561032257600080fd5b506102c8610331366004612eb7565b610cad565b34801561034257600080fd5b50610295610351366004612ee1565b610d7c565b34801561036257600080fd5b50610295610371366004612f1d565b610d97565b34801561038257600080fd5b50610295610391366004612f1d565b610f58565b3480156103a257600080fd5b506102c86103b1366004612e7a565b61133b565b3480156103c257600080fd5b506101d96103d1366004612e7a565b6113f9565b3480156103e257600080fd5b506102c86103f1366004612f56565b611485565b34801561040257600080fd5b50610248611553565b34801561041757600080fd5b50610295610426366004612f7f565b611562565b61043e610439366004612fab565b611571565b6040516101fa9190613020565b34801561045757600080fd5b50610295610466366004613164565b6116e3565b34801561047757600080fd5b50610295610486366004612e7a565b61178b565b34801561049757600080fd5b506102486104a6366004612e7a565b61188a565b3480156104b757600080fd5b506102c86104c6366004612e7a565b6118fe565b3480156104d757600080fd5b506105196104e6366004612e7a565b600a6020526000908152604090208054600182015460029092015463ffffffff8083169364010000000090930416919084565b6040805163ffffffff95861681529490931660208501529183015260608201526080016101fa565b34801561054d57600080fd5b5061022361055c36600461320f565b73ffffffffffffffffffffffffffffffffffffffff918216600090815260056020908152604080832093909416825291909152205460ff1690565b3480156105a357600080fd5b506101d97f000000000000000000000000000000000000000000000000000000000000000081565b60007fffffffff0000000000000000000000000000000000000000000000000000000082167f780e9d6300000000000000000000000000000000000000000000000000000000148061062157506106218261198b565b92915050565b60606000805461063690613242565b80601f016020809104026020016040519081016040528092919081815260200182805461066290613242565b80156106af5780601f10610684576101008083540402835291602001916106af565b820191906000526020600020905b81548152906001019060200180831161069257829003601f168201915b5050505050905090565b60006106c482611a6e565b5060009081526004602052604090205473ffffffffffffffffffffffffffffffffffffffff1690565b60006106f8826113f9565b90508073ffffffffffffffffffffffffffffffffffffffff168373ffffffffffffffffffffffffffffffffffffffff16036107ba576040517f08c379a000000000000000000000000000000000000000000000000000000000815260206004820152602160248201527f4552433732313a20617070726f76616c20746f2063757272656e74206f776e6560448201527f720000000000000000000000000000000000000000000000000000000000000060648201526084015b60405180910390fd5b3373ffffffffffffffffffffffffffffffffffffffff821614806107e357506107e3813361055c565b61086f576040517f08c379a000000000000000000000000000000000000000000000000000000000815260206004820152603e60248201527f4552433732313a20617070726f76652063616c6c6572206973206e6f7420746f60448201527f6b656e206f776e6572206e6f7220617070726f76656420666f7220616c6c000060648201526084016107b1565b6108798383611afc565b505050565b806108893382611b9c565b6108ef576040517f08c379a000000000000000000000000000000000000000000000000000000000815260206004820152600d60248201527f4e6f74206175746f72697a65640000000000000000000000000000000000000060448201526064016107b1565b6000828152600a6020526040812080549091906109119063ffffffff16611c5b565b905060006109538263ffffffff16846001015461092e91906132c4565b8460020154600c546109409190613301565b6c01431e0fae6d7217caa0000000611d1f565b600c54600285015590506109887f00000000000000000000000000000000000000000000000000000000000000003383611def565b60408051828152602081018790527f022e3d29644ead4083349ca84d24bcac368b2461819b70f5921fea15de4dec4d91015b60405180910390a15050505050565b6109d33382611b9c565b610a5f576040517f08c379a000000000000000000000000000000000000000000000000000000000815260206004820152602e60248201527f4552433732313a2063616c6c6572206973206e6f7420746f6b656e206f776e6560448201527f72206e6f7220617070726f76656400000000000000000000000000000000000060648201526084016107b1565b610879838383611f5f565b80610a753382611b9c565b610adb576040517f08c379a000000000000000000000000000000000000000000000000000000000815260206004820152600d60248201527f4e6f74206175746f72697a65640000000000000000000000000000000000000060448201526064016107b1565b6000828152600a60209081526040918290208251608081018452815463ffffffff808216808452640100000000909204169382018490526001830154948201949094526002909101546060820152914291610b369190613318565b63ffffffff1610610ba3576040517f08c379a000000000000000000000000000000000000000000000000000000000815260206004820152601160248201527f6c6f636b2069736e74206578706972656400000000000000000000000000000060448201526064016107b1565b6000610bb28260000151611c5b565b90506000610be18263ffffffff168460400151610bcf91906132c4565b8460600151600c546109409190613301565b90508163ffffffff168360400151610bf991906132c4565b600b6000828254610c0a9190613301565b92505081905550610c4b7f000000000000000000000000000000000000000000000000000000000000000033838660400151610c469190613340565b611def565b610c54856121d1565b604080516080810182526000808252602080830182905282840182905260608301829052835191825281018890529094507f9045c2ac9b2026de8075f2701bbdde882cd5e830b3b1ead9a15b22f2b5b9374291016109ba565b6000610cb883611485565b8210610d46576040517f08c379a000000000000000000000000000000000000000000000000000000000815260206004820152602b60248201527f455243373231456e756d657261626c653a206f776e657220696e646578206f7560448201527f74206f6620626f756e647300000000000000000000000000000000000000000060648201526084016107b1565b5073ffffffffffffffffffffffffffffffffffffffff919091166000908152600660209081526040808320938352929052205490565b610879838383604051806020016040528060008152506116e3565b60008211610e01576040517f08c379a000000000000000000000000000000000000000000000000000000000815260206004820152601e60248201527f7374616b6520616d6f756e742073686f756c6420626520636f7272656374000060448201526064016107b1565b6040805160808101825263ffffffff808416825242166020820152908101839052600c5460608201526000610e3583611c5b565b9050610e4763ffffffff8216856132c4565b600b6000828254610e589190613340565b90915550610e8a90507f00000000000000000000000000000000000000000000000000000000000000003330876122aa565b600d805460009182610e9b83613358565b909155506000818152600a6020908152604091829020865181549288015163ffffffff908116640100000000027fffffffffffffffffffffffffffffffffffffffffffffffff000000000000000090941691161791909117815590850151600182015560608501516002909101559050610f153382612423565b6040805186815263ffffffff861660208201529081018290527f96047b327172431d3b43d48871c99f156c9dcf7d8ebbd5fdeb8b746000825e05906060016109ba565b60008211610fc2576040517f08c379a000000000000000000000000000000000000000000000000000000000815260206004820152601d60248201527f78414c4742416d6f756e742073686f756c6420626520636f727265637400000060448201526064016107b1565b610fee7f00000000000000000000000000000000000000000000000000000000000000003330856122aa565b6040517f70a082310000000000000000000000000000000000000000000000000000000081523060048201526000907f000000000000000000000000000000000000000000000000000000000000000073ffffffffffffffffffffffffffffffffffffffff16906370a0823190602401602060405180830381865afa15801561107b573d6000803e3d6000fd5b505050506040513d601f19601f8201168201806040525081019061109f9190613390565b6040517f67dfd4c9000000000000000000000000000000000000000000000000000000008152600481018590529091507f000000000000000000000000000000000000000000000000000000000000000073ffffffffffffffffffffffffffffffffffffffff16906367dfd4c990602401600060405180830381600087803b15801561112a57600080fd5b505af115801561113e573d6000803e3d6000fd5b50506040517f70a08231000000000000000000000000000000000000000000000000000000008152306004820152600092507f000000000000000000000000000000000000000000000000000000000000000073ffffffffffffffffffffffffffffffffffffffff1691506370a0823190602401602060405180830381865afa1580156111cf573d6000803e3d6000fd5b505050506040513d601f19601f820116820180604052508101906111f39190613390565b905060006112018383613301565b6040805160808101825263ffffffff808816825242166020820152908101829052600c546060820152909150600061123886611c5b565b905061124a63ffffffff8216846132c4565b600b600082825461125b9190613340565b9091555050600d80546000918261127183613358565b909155506000818152600a6020908152604091829020865181549288015163ffffffff908116640100000000027fffffffffffffffffffffffffffffffffffffffffffffffff0000000000000000909416911617919091178155908501516001820155606085015160029091015590506112eb3382612423565b6040805185815263ffffffff891660208201529081018290527f27df482409e1fee770faa585c509e15642bfcd60ab6e4ee0d2b5732edbf2cb889060600160405180910390a15050505050505050565b600061134660085490565b82106113d4576040517f08c379a000000000000000000000000000000000000000000000000000000000815260206004820152602c60248201527f455243373231456e756d657261626c653a20676c6f62616c20696e646578206f60448201527f7574206f6620626f756e6473000000000000000000000000000000000000000060648201526084016107b1565b600882815481106113e7576113e76133a9565b90600052602060002001549050919050565b60008181526002602052604081205473ffffffffffffffffffffffffffffffffffffffff1680610621576040517f08c379a000000000000000000000000000000000000000000000000000000000815260206004820152601860248201527f4552433732313a20696e76616c696420746f6b656e204944000000000000000060448201526064016107b1565b600073ffffffffffffffffffffffffffffffffffffffff821661152a576040517f08c379a000000000000000000000000000000000000000000000000000000000815260206004820152602960248201527f4552433732313a2061646472657373207a65726f206973206e6f74206120766160448201527f6c6964206f776e6572000000000000000000000000000000000000000000000060648201526084016107b1565b5073ffffffffffffffffffffffffffffffffffffffff1660009081526003602052604090205490565b60606001805461063690613242565b61156d3383836125f1565b5050565b60608167ffffffffffffffff81111561158c5761158c6130a0565b6040519080825280602002602001820160405280156115bf57816020015b60608152602001906001900390816115aa5790505b50905060005b828110156116dc57600080308686858181106115e3576115e36133a9565b90506020028101906115f591906133d8565b604051611603929190613444565b600060405180830381855af49150503d806000811461163e576040519150601f19603f3d011682016040523d82523d6000602084013e611643565b606091505b5091509150816116a95760448151101561165c57600080fd5b600481019050808060200190518101906116769190613454565b6040517f08c379a00000000000000000000000000000000000000000000000000000000081526004016107b19190612e67565b808484815181106116bc576116bc6133a9565b6020026020010181905250505080806116d490613358565b9150506115c5565b5092915050565b6116ed3383611b9c565b611779576040517f08c379a000000000000000000000000000000000000000000000000000000000815260206004820152602e60248201527f4552433732313a2063616c6c6572206973206e6f7420746f6b656e206f776e6560448201527f72206e6f7220617070726f76656400000000000000000000000000000000000060648201526084016107b1565b6117858484848461271e565b50505050565b6000600b54116117f7576040517f08c379a000000000000000000000000000000000000000000000000000000000815260206004820152600d60248201527f706f6f6c20697320656d7074790000000000000000000000000000000000000060448201526064016107b1565b611811816c01431e0fae6d7217caa0000000600b54611d1f565b600c60008282546118229190613340565b9091555061185490507f00000000000000000000000000000000000000000000000000000000000000003330846122aa565b6040518181527fa8c8f6c9639d5a378696689ad02c4ea707de67f3175f609f1c016d3ce94297899060200160405180910390a150565b606061189582611a6e565b60006118ac60408051602081019091526000815290565b905060008151116118cc57604051806020016040528060008152506118f7565b806118d6846127c1565b6040516020016118e79291906134cb565b6040516020818303038152906040525b9392505050565b6000818152600a602090815260408083208151608081018352815463ffffffff808216808452640100000000909204169482019490945260018201549281019290925260020154606082015290829061195690611c5b565b90506119838163ffffffff16836040015161197191906132c4565b8360600151600c546109409190613301565b949350505050565b60007fffffffff0000000000000000000000000000000000000000000000000000000082167f80ac58cd000000000000000000000000000000000000000000000000000000001480611a1e57507fffffffff0000000000000000000000000000000000000000000000000000000082167f5b5e139f00000000000000000000000000000000000000000000000000000000145b8061062157507f01ffc9a7000000000000000000000000000000000000000000000000000000007fffffffff00000000000000000000000000000000000000000000000000000000831614610621565b60008181526002602052604090205473ffffffffffffffffffffffffffffffffffffffff16611af9576040517f08c379a000000000000000000000000000000000000000000000000000000000815260206004820152601860248201527f4552433732313a20696e76616c696420746f6b656e204944000000000000000060448201526064016107b1565b50565b600081815260046020526040902080547fffffffffffffffffffffffff00000000000000000000000000000000000000001673ffffffffffffffffffffffffffffffffffffffff84169081179091558190611b56826113f9565b73ffffffffffffffffffffffffffffffffffffffff167f8c5be1e5ebec7d5bd14f71427d1e84f3dd0314c0f7b2291e5b200ac8c7c3b92560405160405180910390a45050565b600080611ba8836113f9565b90508073ffffffffffffffffffffffffffffffffffffffff168473ffffffffffffffffffffffffffffffffffffffff161480611c16575073ffffffffffffffffffffffffffffffffffffffff80821660009081526005602090815260408083209388168352929052205460ff165b8061198357508373ffffffffffffffffffffffffffffffffffffffff16611c3c846106b9565b73ffffffffffffffffffffffffffffffffffffffff1614949350505050565b60008163ffffffff16607803611c7357506001919050565b8163ffffffff1661012c03611c8a57506003919050565b8163ffffffff166101a403611ca157506006919050565b8163ffffffff1661025803611cb85750600c919050565b6040517f08c379a000000000000000000000000000000000000000000000000000000000815260206004820152600e60248201527f756e636f7272656374206c6f636b00000000000000000000000000000000000060448201526064016107b1565b919050565b600080807fffffffffffffffffffffffffffffffffffffffffffffffffffffffffffffffff85870985870292508281108382030391505080600003611d765760008411611d6b57600080fd5b5082900490506118f7565b808411611d8257600080fd5b6000848688096000868103871696879004966002600389028118808a02820302808a02820302808a02820302808a02820302808a02820302808a02909103029181900381900460010186841190950394909402919094039290920491909117919091029150509392505050565b6040805173ffffffffffffffffffffffffffffffffffffffff8481166024830152604480830185905283518084039091018152606490920183526020820180517bffffffffffffffffffffffffffffffffffffffffffffffffffffffff167fa9059cbb000000000000000000000000000000000000000000000000000000001790529151600092839290871691611e8691906134f1565b6000604051808303816000865af19150503d8060008114611ec3576040519150601f19603f3d011682016040523d82523d6000602084013e611ec8565b606091505b5091509150818015611ef2575080511580611ef2575080806020019051810190611ef2919061350d565b611f58576040517f08c379a000000000000000000000000000000000000000000000000000000000815260206004820152600260248201527f535400000000000000000000000000000000000000000000000000000000000060448201526064016107b1565b5050505050565b8273ffffffffffffffffffffffffffffffffffffffff16611f7f826113f9565b73ffffffffffffffffffffffffffffffffffffffff1614612022576040517f08c379a000000000000000000000000000000000000000000000000000000000815260206004820152602560248201527f4552433732313a207472616e736665722066726f6d20696e636f72726563742060448201527f6f776e657200000000000000000000000000000000000000000000000000000060648201526084016107b1565b73ffffffffffffffffffffffffffffffffffffffff82166120c4576040517f08c379a0000000000000000000000000000000000000000000000000000000008152602060048201526024808201527f4552433732313a207472616e7366657220746f20746865207a65726f2061646460448201527f726573730000000000000000000000000000000000000000000000000000000060648201526084016107b1565b6120cf8383836128f6565b6120da600082611afc565b73ffffffffffffffffffffffffffffffffffffffff83166000908152600360205260408120805460019290612110908490613301565b909155505073ffffffffffffffffffffffffffffffffffffffff8216600090815260036020526040812080546001929061214b908490613340565b909155505060008181526002602052604080822080547fffffffffffffffffffffffff00000000000000000000000000000000000000001673ffffffffffffffffffffffffffffffffffffffff86811691821790925591518493918716917fddf252ad1be2c89b69c2b068fc378daa952ba7f163c4a11628f55a4df523b3ef91a4505050565b60006121dc826113f9565b90506121ea816000846128f6565b6121f5600083611afc565b73ffffffffffffffffffffffffffffffffffffffff8116600090815260036020526040812080546001929061222b908490613301565b909155505060008281526002602052604080822080547fffffffffffffffffffffffff00000000000000000000000000000000000000001690555183919073ffffffffffffffffffffffffffffffffffffffff8416907fddf252ad1be2c89b69c2b068fc378daa952ba7f163c4a11628f55a4df523b3ef908390a45050565b6040805173ffffffffffffffffffffffffffffffffffffffff85811660248301528481166044830152606480830185905283518084039091018152608490920183526020820180517bffffffffffffffffffffffffffffffffffffffffffffffffffffffff167f23b872dd00000000000000000000000000000000000000000000000000000000179052915160009283929088169161234991906134f1565b6000604051808303816000865af19150503d8060008114612386576040519150601f19603f3d011682016040523d82523d6000602084013e61238b565b606091505b50915091508180156123b55750805115806123b55750808060200190518101906123b5919061350d565b61241b576040517f08c379a000000000000000000000000000000000000000000000000000000000815260206004820152600360248201527f535446000000000000000000000000000000000000000000000000000000000060448201526064016107b1565b505050505050565b73ffffffffffffffffffffffffffffffffffffffff82166124a0576040517f08c379a000000000000000000000000000000000000000000000000000000000815260206004820181905260248201527f4552433732313a206d696e7420746f20746865207a65726f206164647265737360448201526064016107b1565b60008181526002602052604090205473ffffffffffffffffffffffffffffffffffffffff161561252c576040517f08c379a000000000000000000000000000000000000000000000000000000000815260206004820152601c60248201527f4552433732313a20746f6b656e20616c7265616479206d696e7465640000000060448201526064016107b1565b612538600083836128f6565b73ffffffffffffffffffffffffffffffffffffffff8216600090815260036020526040812080546001929061256e908490613340565b909155505060008181526002602052604080822080547fffffffffffffffffffffffff00000000000000000000000000000000000000001673ffffffffffffffffffffffffffffffffffffffff861690811790915590518392907fddf252ad1be2c89b69c2b068fc378daa952ba7f163c4a11628f55a4df523b3ef908290a45050565b8173ffffffffffffffffffffffffffffffffffffffff168373ffffffffffffffffffffffffffffffffffffffff1603612686576040517f08c379a000000000000000000000000000000000000000000000000000000000815260206004820152601960248201527f4552433732313a20617070726f766520746f2063616c6c65720000000000000060448201526064016107b1565b73ffffffffffffffffffffffffffffffffffffffff83811660008181526005602090815260408083209487168084529482529182902080547fffffffffffffffffffffffffffffffffffffffffffffffffffffffffffffff001686151590811790915591519182527f17307eab39ab6107e8899845ad3d59bd9653f200f220920489ca2b5937696c31910160405180910390a3505050565b612729848484611f5f565b612735848484846129fc565b611785576040517f08c379a000000000000000000000000000000000000000000000000000000000815260206004820152603260248201527f4552433732313a207472616e7366657220746f206e6f6e20455243373231526560448201527f63656976657220696d706c656d656e746572000000000000000000000000000060648201526084016107b1565b60608160000361280457505060408051808201909152600181527f3000000000000000000000000000000000000000000000000000000000000000602082015290565b8160005b811561282e578061281881613358565b91506128279050600a83613559565b9150612808565b60008167ffffffffffffffff811115612849576128496130a0565b6040519080825280601f01601f191660200182016040528015612873576020820181803683370190505b5090505b841561198357612888600183613301565b9150612895600a8661356d565b6128a0906030613340565b60f81b8183815181106128b5576128b56133a9565b60200101907effffffffffffffffffffffffffffffffffffffffffffffffffffffffffffff1916908160001a9053506128ef600a86613559565b9450612877565b73ffffffffffffffffffffffffffffffffffffffff831661295e5761295981600880546000838152600960205260408120829055600182018355919091527ff3f7a9fe364faab93b216da50a3214154f22a0a2b415b23a84c8169e8b636ee30155565b61299b565b8173ffffffffffffffffffffffffffffffffffffffff168373ffffffffffffffffffffffffffffffffffffffff161461299b5761299b8382612bef565b73ffffffffffffffffffffffffffffffffffffffff82166129bf5761087981612ca6565b8273ffffffffffffffffffffffffffffffffffffffff168273ffffffffffffffffffffffffffffffffffffffff1614610879576108798282612d55565b600073ffffffffffffffffffffffffffffffffffffffff84163b15612be4576040517f150b7a0200000000000000000000000000000000000000000000000000000000815273ffffffffffffffffffffffffffffffffffffffff85169063150b7a0290612a73903390899088908890600401613581565b6020604051808303816000875af1925050508015612acc575060408051601f3d9081017fffffffffffffffffffffffffffffffffffffffffffffffffffffffffffffffe0168201909252612ac9918101906135ca565b60015b612b99573d808015612afa576040519150601f19603f3d011682016040523d82523d6000602084013e612aff565b606091505b508051600003612b91576040517f08c379a000000000000000000000000000000000000000000000000000000000815260206004820152603260248201527f4552433732313a207472616e7366657220746f206e6f6e20455243373231526560448201527f63656976657220696d706c656d656e746572000000000000000000000000000060648201526084016107b1565b805181602001fd5b7fffffffff00000000000000000000000000000000000000000000000000000000167f150b7a0200000000000000000000000000000000000000000000000000000000149050611983565b506001949350505050565b60006001612bfc84611485565b612c069190613301565b600083815260076020526040902054909150808214612c665773ffffffffffffffffffffffffffffffffffffffff841660009081526006602090815260408083208584528252808320548484528184208190558352600790915290208190555b50600091825260076020908152604080842084905573ffffffffffffffffffffffffffffffffffffffff9094168352600681528383209183525290812055565b600854600090612cb890600190613301565b60008381526009602052604081205460088054939450909284908110612ce057612ce06133a9565b906000526020600020015490508060088381548110612d0157612d016133a9565b6000918252602080832090910192909255828152600990915260408082208490558582528120556008805480612d3957612d396135e7565b6001900381819060005260206000200160009055905550505050565b6000612d6083611485565b73ffffffffffffffffffffffffffffffffffffffff9093166000908152600660209081526040808320868452825280832085905593825260079052919091209190915550565b7fffffffff0000000000000000000000000000000000000000000000000000000081168114611af957600080fd5b600060208284031215612de657600080fd5b81356118f781612da6565b60005b83811015612e0c578181015183820152602001612df4565b838111156117855750506000910152565b60008151808452612e35816020860160208601612df1565b601f017fffffffffffffffffffffffffffffffffffffffffffffffffffffffffffffffe0169290920160200192915050565b6020815260006118f76020830184612e1d565b600060208284031215612e8c57600080fd5b5035919050565b803573ffffffffffffffffffffffffffffffffffffffff81168114611d1a57600080fd5b60008060408385031215612eca57600080fd5b612ed383612e93565b946020939093013593505050565b600080600060608486031215612ef657600080fd5b612eff84612e93565b9250612f0d60208501612e93565b9150604084013590509250925092565b60008060408385031215612f3057600080fd5b82359150602083013563ffffffff81168114612f4b57600080fd5b809150509250929050565b600060208284031215612f6857600080fd5b6118f782612e93565b8015158114611af957600080fd5b60008060408385031215612f9257600080fd5b612f9b83612e93565b91506020830135612f4b81612f71565b60008060208385031215612fbe57600080fd5b823567ffffffffffffffff80821115612fd657600080fd5b818501915085601f830112612fea57600080fd5b813581811115612ff957600080fd5b8660208260051b850101111561300e57600080fd5b60209290920196919550909350505050565b6000602080830181845280855180835260408601915060408160051b870101925083870160005b82811015613093577fffffffffffffffffffffffffffffffffffffffffffffffffffffffffffffffc0888603018452613081858351612e1d565b94509285019290850190600101613047565b5092979650505050505050565b7f4e487b7100000000000000000000000000000000000000000000000000000000600052604160045260246000fd5b604051601f82017fffffffffffffffffffffffffffffffffffffffffffffffffffffffffffffffe016810167ffffffffffffffff81118282101715613116576131166130a0565b604052919050565b600067ffffffffffffffff821115613138576131386130a0565b50601f017fffffffffffffffffffffffffffffffffffffffffffffffffffffffffffffffe01660200190565b6000806000806080858703121561317a57600080fd5b61318385612e93565b935061319160208601612e93565b925060408501359150606085013567ffffffffffffffff8111156131b457600080fd5b8501601f810187136131c557600080fd5b80356131d86131d38261311e565b6130cf565b8181528860208385010111156131ed57600080fd5b8160208401602083013760006020838301015280935050505092959194509250565b6000806040838503121561322257600080fd5b61322b83612e93565b915061323960208401612e93565b90509250929050565b600181811c9082168061325657607f821691505b60208210810361328f577f4e487b7100000000000000000000000000000000000000000000000000000000600052602260045260246000fd5b50919050565b7f4e487b7100000000000000000000000000000000000000000000000000000000600052601160045260246000fd5b6000817fffffffffffffffffffffffffffffffffffffffffffffffffffffffffffffffff04831182151516156132fc576132fc613295565b500290565b60008282101561331357613313613295565b500390565b600063ffffffff80831681851680830382111561333757613337613295565b01949350505050565b6000821982111561335357613353613295565b500190565b60007fffffffffffffffffffffffffffffffffffffffffffffffffffffffffffffffff820361338957613389613295565b5060010190565b6000602082840312156133a257600080fd5b5051919050565b7f4e487b7100000000000000000000000000000000000000000000000000000000600052603260045260246000fd5b60008083357fffffffffffffffffffffffffffffffffffffffffffffffffffffffffffffffe184360301811261340d57600080fd5b83018035915067ffffffffffffffff82111561342857600080fd5b60200191503681900382131561343d57600080fd5b9250929050565b8183823760009101908152919050565b60006020828403121561346657600080fd5b815167ffffffffffffffff81111561347d57600080fd5b8201601f8101841361348e57600080fd5b805161349c6131d38261311e565b8181528560208385010111156134b157600080fd5b6134c2826020830160208601612df1565b95945050505050565b600083516134dd818460208801612df1565b835190830190613337818360208801612df1565b60008251613503818460208701612df1565b9190910192915050565b60006020828403121561351f57600080fd5b81516118f781612f71565b7f4e487b7100000000000000000000000000000000000000000000000000000000600052601260045260246000fd5b6000826135685761356861352a565b500490565b60008261357c5761357c61352a565b500690565b600073ffffffffffffffffffffffffffffffffffffffff8087168352808616602084015250836040830152608060608301526135c06080830184612e1d565b9695505050505050565b6000602082840312156135dc57600080fd5b81516118f781612da6565b7f4e487b7100000000000000000000000000000000000000000000000000000000600052603160045260246000fdfea164736f6c634300080f000a",
  "linkReferences": {},
  "deployedLinkReferences": {}
}